:020000040001F9
:1080000000300020F58001000F8101001181010086
:108010000000000000000000000000000000000060
:1080200000000000000000000000000013810100BB
:108030000000000000000000158101001781010010
:108040001981010019810100918501001981010048
:1080500019810100000000006982010019810100FE
:1080600019810100198101001981010019810100A4
:108070001981010019810100198101001981010094
:1080800019810100C98401001981010019810100D1
:10809000E984010019810100F184010019810100C6
:1080A000198101001981010000000000000000009A
:1080B00000000000000000000000000000000000C0
:1080C0000348854600F09CF800480047599D010090
:1080D00000300020401E00BF00BF00BF00BF00BF37
:1080E00000BF00BF00BF00BF00BF00BF00BFF1D195
:1080F000704700000321094802680A4302600848EB
:1081000002680A4302600748804707480047FEE7C5
:10811000FEE7FEE7FEE7FEE7FEE70000240500407D
:10812000540500403D850100C180010030B50B467B
:10813000014600202022012409E00D46D5409D4241
:1081400005D31D469540491B2546954040191546C7
:10815000521E002DF1DC30BD03460B439B0703D0BC
:1081600009E008C9121F08C0042AFAD203E00B78FC
:10817000491C0370401C521EF9D27047D2B201E074
:108180000270401C491EFBD270470022F6E710B572
:1081900013460A4604461946FFF7F0FF204610BD75
:1081A000F0B51FB40646002082B005464024019178
:1081B00000901BE0019922460F46304600F042F83D
:1081C000049A059B801A994110D3104619462246FD
:1081D00000F028F8361A8F4101972246012000212D
:1081E000009F00F01FF838184D4100902046641E93
:1081F0000028DFDC019B00982946324607B0F0BD1D
:10820000064C0125064E05E02046E36807C82B43CF
:1082100098471034B442F7D3FFF756FFB0AD0100D2
:10822000D0AD010010B5202A04DB0146203A914070
:10823000002010BD914020239C1A0346E3401943BF
:10824000904010BD10B5202A04DB0846203AD040EB
:10825000002110BD0B46D340D0402024A21A9140EB
:108260000843194610BD0000F8B50025FF2401346D
:1082700001262F460095204602F008F9002808D074
:1082800034484068304204D0334800212018354338
:108290000160241D76007F1CA4B2042FEBD3FF20C5
:1082A0007D3002F0F3F8002807D02C48002101604F
:1082B000400705432A48006900902A4E280713D03A
:1082C00001270024384628420AD02748A200111866
:1082D00008690969C004C00E8903B258890F904724
:1082E0007F00641C042CEDD3002D30DA00241D4ED9
:1082F0000021301940304156491C25D00778BD0671
:10830000AD0E284601F066F980003658002E1BD0CD
:10831000BF090121A940154AA80080180068009AE9
:108320008003800F114202D0022802D00CE0032803
:108330000AD1032F05D102280AD00221284602F0D3
:1083400095F839462846B047641C042CCFD3F8BDB5
:108350000321F3E700630040006000407C610040BF
:1083600000050050C42600200065004000070050B2
:1083700010B5C0B2002100F0CDF810BD10B5C0B2EC
:10838000012100F0C7F810BD1CB5002103230091A6
:108390000A46019102F032F81CBD10B502F05BF8FC
:1083A00010BD00008307FF22DB0E9A408907090EEB
:1083B000994000280BDA0007000F083883080848A6
:1083C0009B001B18D86990430843D8617047830805
:1083D00004489B001B1818689043084318607047B6
:1083E00000ED00E000E400E00EB502920091019083
:1083F000012312220221032001F018FA002800D0E4
:1084000001200EBD03B583B0012104AA0B460192E1
:108410000291009012220221032001F046FA002866
:1084200002D0002005B000BD0120FBE708B5012205
:108430000A216846FFF7D8FF684607490078088098
:10844000022207216846FFF7CFFF6846017840788F
:108450000002081880B208BDB820002010B50E2117
:108460001020FFF7CFFF04210F20FFF7CBFF1021D3
:108470001320FFF7C7FF90211220FFF7C3FF0B2146
:108480001420FFF7BFFF09211520FFF7BBFF0121D3
:108490003220FFF7B7FF60212720FFF7B3FF6021ED
:1084A0002820FFF7AFFF60212920FFF7ABFF0C2149
:1084B0001620FFF7A7FFCB211120FFF7A3FF10BD68
:1084C00010B5FFF7CBFF10BD10B5064900200860BE
:1084D00048608860C860034940390860486002F01D
:1084E0001DFA10BD4011014010B502F0ADF910BDEC
:1084F00010B507484068002807D08047002803D0FF
:108500000022114600F0AAFB10BD01F093FA10BD45
:10851000A420002070B50C46054601F09CFF064BD8
:1085200058680122AA40002C02D002439A6070BD14
:10853000C0430243DA6070BD0005005010B501F081
:10854000F5FA002805D00E490C484860C8130D49BB
:1085500088610D48018CC9B201290ED1818C0907AF
:108560000BD1018D0906090F042906D1808D000663
:10857000000F02D105490120886010BDDFFF07C050
:1085800000050040006C0040C00F00F000060040F5
:10859000F0B53C4D012185B04902284601F091FF1C
:1085A00001270026384C002823D0FF2125312846FA
:1085B00001F07CFF00281CD0FF21253128466E5099
:1085C0008122324992008A60617D002900D1476092
:1085D000022269460A7001F063FF0390E07C69465D
:1085E0000872E0680190E674626868462168904706
:1085F0001DE00421284601F064FF002817D0FF2168
:108600000931284601F052FF002810D002F02AF864
:10861000E07C217D88420AD1607D002800D16F6016
:1086200081211A4889008160207D02F07FF8FF21B6
:108630001D31284601F03AFF00280DD0A07C218A88
:10864000884202D902F0ACF906E0FF211D316E50DC
:10865000002801D002F0F8F9FF214531284601F049
:1086600025FF00280CD0FF2045302E50607D0028CB
:1086700000D02F60E07C002802D0207D02F056F868
:1086800005B0F0BD002000400C2700200023004072
:108690000FB410B503A9044B044A029800F018F86F
:1086A00010BC08BC04B01847EF970100A0200020C0
:1086B00002E008C8121F08C1002AFAD170477047AB
:1086C000002001E001C1121F002AFBD17047000009
:1086D000FFB58FB00F46044600264AE1252858D141
:1086E0000025641CA64A0121009523780846203BFA
:1086F00098400346134202D00543641CF5E72078F6
:108700002E2815D104200543641C20782A280AD17C
:1087100001CF641C00900BE000990A2251433039CC
:108720004018641C00902078014630390929F3D99B
:1087300020786C280ED004DC4C2813D06A2812D183
:1087400004E074280ED07A280DD10BE001204005FA
:10875000054307E00121090562780D43824201D1FA
:10876000641C6D18641C20788646692849D008DC92
:1087700000286FD0582870D063280FD0642808D103
:108780003FE070286ED0732812D0752860D078280A
:1087900063D0129A11999047761CE9E038786946BF
:1087A00008720020487202A83F1D0190012003E0DA
:1087B00001CF01900020C04369070CD5002500E0DF
:1087C0006D1C00998D420FDA8542F9DB0199495DF4
:1087D0000029F5D108E0002500E06D1C8542FCDB96
:1087E0000199495D0029F8D1761907E001980199AE
:1087F0000078491C0191129A119990476D1EF5D28B
:10880000B6E00A20029000216802400F039102287E
:108810000CD001CFC117844600290EDA6246084603
:1088200052420021814194462D2009E0FF1DFF089E
:10883000FF00796838680837EDE7280504D52B2054
:108840006A461074012032E0E80730D02020F7E7B4
:108850000A2003E091E000E004E0102000210391F1
:10886000029007E010200290002104200543082018
:10887000039100906802400F02281DD001CF002113
:10888000844600200D90280712D5704670281AD013
:10889000029A1020039B42401A4309D160460843C4
:1088A00006D030206A4610747046507402200D9035
:1088B0007046582811D00BE0FF1DFF08FF007968B3
:1088C00038680837DCE740206A46107401200D90B4
:1088D0002CA001900DA80E900DE02FA0F9E76046A6
:1088E000039B029AFFF75CFC019B84469B5C0E9AFB
:1088F000521E0E92137060460843F0D10E9805A9DF
:10890000081A20300190680701D5009801E0012085
:1089100000900199884203DD01460198081A00E0A1
:1089200000200025009006E004A8129A405D1199ED
:108930009047761C6D1C0D988542F5DB04E0129A79
:10894000302011999047761C0099481E009000290C
:10895000F5DC08E00E980E990078491C0E91129AE9
:1089600011999047761C0199481E01900029F1DC6D
:10897000641C2078002800D0B0E6304613B0F0BD6B
:1089800009280100303132333435363738396162E5
:1089900063646566000000003031323334353637A9
:1089A000383941424344454600000000F7B584B0E1
:1089B0000025168807461580406B1446002813D002
:1089C00003780598032E51D30221017021881122CA
:1089D000491C89B2218042542188491C89B22180D6
:1089E00043542088401C2080386B00281DD0054649
:1089F0002088059902461232B24237D811220A5411
:108A000020881022401C80B220800A542088401CFC
:108A100020800F202A5C2388401ECA54228840B23E
:108A2000521C22800028F5DA0025384620300290BA
:108A3000807B002806D033462246059901F09AF83B
:108A4000050014D10298407B002806D0324621460A
:108A5000059800F0E3FC050009D1B878002823D080
:108A6000059886462088001DB04202D90C2007B028
:108A7000F0BD684679DF0028F9D1218803207246CD
:108A8000505420881921401C80B220801154208825
:108A90007146401C80B2208041186846008802F070
:108AA00069F8218840182080F878002817D021889C
:108AB00003230A46FB56C91C0598B142D6D80221A9
:108AC000815421880122491C89B221804254218885
:108AD000491C89B2218043542088401C208078683A
:108AE000002817D021880023C3560A46C91C0598C0
:108AF000B142BBD80221815421880A22491C89B283
:108B0000218042542188491C89B221804354208805
:108B1000401C2080388900280AD0009438460196ED
:108B2000062202210830059B02F099F805009ED12B
:108B3000388A00280AD0009438460196072203217B
:108B40001030059B02F08BF8050090D1388B00287F
:108B50000AD0009438460196152214211830059B3E
:108B600002F07DF8050082D1386A002806D033462D
:108B70002246059900F08AFD0500D8D1786A0028C0
:108B800006D033462246059901F066FA0500CED19B
:108B90000298007B002807D03346224638460599C4
:108BA00001F0E2FD0500C2D13878002807D0334635
:108BB00022463846059901F083FA0500B7D12846C8
:108BC00055E7000030B5ADB0002422482694279424
:108BD0002894C16820A80A0E82770A0CC2770A0A74
:108BE00028A802704170592120A8818426A82B90C2
:108BF0000A2120A80185382101A8FFF7C6FA022121
:108C00006846017184710621C17129A80A90382132
:108C10000FA8FFF7BAFA012510A885810D48242175
:108C2000083014901DA8FFF7B0FA20A80570402066
:108C300021902294084B1DAA0FA9009401A800F0CE
:108C4000BBF9002803D00022114600F007F82DB030
:108C500030BD00000020002005A50100BFF34F8FAC
:108C600003490248C860BFF34F8FFEE70400FA05CE
:108C700000ED00E010B58268C3689A1A03D000F0D6
:108C8000A3FD002010BD052010BD002906D0002A3C
:108C900002D0531E134203D0092070470E207047A4
:108CA0000160838000218160C1600846704710B573
:108CB0008268C3689A1A83889A4203D800F08EFDAE
:108CC000002010BD042010BD094B9B68002B07D06D
:108CD000002A07D0002805D00068037C002B03D0B1
:108CE0000820704707207047417442610020704798
:108CF00080200020FFB59007002581B014460E4665
:108D0000002832D11B4F002C31D001F089FC04988F
:108D10007861032038702246BC6018340020334646
:108D200018214B43C10089180D704D708E704C6036
:108D30001C19401C0328F5DBFD607D7001240E48E2
:108D4000BD702405046003211420FFF72BFB0B48A2
:108D500004600B4C0198A06003211120FFF722FB57
:108D600060683861002005B0F0BD0720FBE7BD60FA
:108D7000FBE700008020002080E200E000E100E04E
:108D800000150140FEB50D461B491746896804468B
:108D900000292AD0002C28D0052D01D20720FEBDA5
:108DA0006069002821D0607C012820D0002601F0D5
:108DB00019FFC0001049019089684018694601F008
:108DC0003BFF002815D0012101700C49446049681F
:108DD0000830E2C00849019889684118684600785F
:108DE000487001F073FD0020FEBD0820FEBD2E4638
:108DF000DDE70420FEBD00008020002000150140BA
:108E0000F8B5134D0446A96800291CD0002C1AD0CF
:108E10006069002817D00026267401F0E3FEC70021
:108E2000A8686946381801F007FF00280DD0022114
:108E300001704460A868391868460078487001F0ED
:108E400045FD3046F8BD0820F8BD0420F8BD0000FF
:108E50008020002010B5044609488168C2688088D7
:108E6000511A814207D10121064801F009FA002870
:108E700001D0052010BD21460148FFF7FBFE10BDC3
:108E8000A42600205620002070B50446224888B051
:108E90001E460D0042601CD0A888296882B21F4877
:108EA000FFF7F3FE002815D1A889A96882B21B48F4
:108EB0001030FFF7EAFE00280CD12022184968463E
:108EC000FFF74AF9A06806902079002804D0012114
:108ED00003E0072008B070BD0021684601750677E1
:108EE0006079002800D00E2069464875E07802902D
:108EF000A078039020780190607800900949684636
:108F000001F05EF90028E5D101F014FA02480121D0
:108F1000801C01F0B5F9DDE754200020A4260020D4
:108F200070AD0100D1AA010010B504460648012128
:108F30004470401C01F00AFA112803D1214603486D
:108F4000FFF7B5FE10BD000054200020B42600201D
:108F5000F0B50C4693B01F216A4611800726002702
:108F60009180002809D0C17849070DD502A9FFF7E3
:108F70001DFD002809D102AD01E000251780002C5D
:108F80000ED0E078002802D0304613B0F0BD01AA20
:108F90000AA92046FFF70AFD0028F6D10AAA02E036
:108FA00068460022878068468088C3B26846008889
:108FB000C1B2284672DFE8E770B50D46049916463F
:108FC000040040D0002E3ED0404800224271C360D1
:108FD0000161242231463E48FFF7BEF800F0B4F8A4
:108FE0003B49343108461038016020318160382116
:108FF0005C38FFF7CAF83648217838380170A17814
:109000008170E178C1706178417062692169426163
:109010000161E268A168C26081600146E369A269FA
:10902000CB618A61616A002917D00146AC310346E1
:10903000B83341628B60626A12880A80626A9288E1
:109040008A80002206E00E2070BD666AB668B65CB3
:109050009E54521C8E889642F7D8A16A00291AD0D5
:109060001B4BAC3319460C398B608162A26A928823
:109070008A80A26A12880A80002204E0A66AB66882
:10908000B65C9E54521C8E889642F7D82C210A5DFD
:109090000F4918390A73216A002908D00B49143185
:1090A0000162226A52884A80226A12880A806168B4
:1090B000002904D00549891D416061684160044868
:1090C00029463838FFF744FF70BD000020200020FB
:1090D0009C25002010B502881A4C102A17D00021B8
:1090E000112A17D0192A11D1807900280ED1607960
:1090F00001281BD002281FD003281FD0042805D127
:109100002171E2680846002A00D0904710BD80888F
:10911000208110BD6170808821898842F9D10120A9
:1091200005E021690029F4D0884710BD022000F035
:1091300013F80028F5D110BD0320F8E703202071B3
:109140000420F4E72020002010B507210148FFF794
:109150001CF810BD38200020F0B5754C87B0607148
:10916000002606A8069601F031FA0127082806D045
:1091700000286FD10698002802D02770D4E0069608
:10918000FFF7E2FF6B4D6878002802D06079012874
:1091900005D0A87800280AD06079022807D1E168B4
:1091A000002903D0E7700820884700E0E670607966
:1091B000012808D16878002809D05D48193001F0ED
:1091C000F9F9002803D06079022802D00CE00220CF
:1091D0006071A878002805D05548193001F0EAF9E7
:1091E000002801D103206071287B002804D1607918
:1091F000032801D104206071287E002804D1607901
:10920000042801D166712671E16800290AD06079CD
:10921000032801D0042805D12878002802D06078DE
:10922000002818D0A67018216846FEF7AEFF6846E1
:109230000670019606720396607901280FD0022805
:1092400016D03C4E243637465C3F03281CD00428F9
:109250005ED13BE069E0A77007208847E3E7344828
:10926000183001906846077046820682277152E0E6
:109270002F48183001906846077029894182A988D3
:1092800001820220207146E0A88A69464882288A25
:1092900008822848243001F051FD002805D02878A4
:1092A000002802D06078002801D003202FE002209F
:1092B0006946087204200396F8701E480021383869
:1092C000FFF746FE002830D1052020E0A88B694634
:1092D0000882288C48821748243001F02FFD00288E
:1092E00005D02878002802D06078002801D004201A
:1092F0000DE002206946087204200396F8700D48BC
:1093000000213838FFF724FE00280ED106202071F6
:109310006079002803D0684673DF002805D1E16832
:10932000002901D020798847002007B0F0BD000057
:10933000202000209C25002070B5054601461C22F7
:109340000E48FEF709FF0E4C0026267029680029FA
:1093500006D00822201DFEF7FFFE201D7ADF02E066
:109360000748001D7BDF002807D1401E6080667023
:10937000044A00210448FFF7A7FC70BD882600209E
:109380004020002081AB01005CAD0100F8B5214C0C
:10939000028800271E4DE689102A15D01E49112A81
:1093A00021D0122A2DD0502A1CD1801D0288B24211
:1093B00018D1028B022A15D1C27E837E1002184377
:1093C000C007C00F0CD112E08188698001461048A7
:1093D000082216310C30FEF7BFFE6F70002E01D14F
:1093E00000F09EF9F8BD0020C04368806F700868E7
:1093F000FFF706FD0028F5D0A1690029F2D08847C3
:10940000F8BD811D024808220C30FEF7A5FEE7E7F3
:1094100040200020882600205CAD01007CB5054678
:1094200008880C460930904201D90C207CBD684662
:1094300071DF0028FAD121880820685420881B2178
:10944000401C80B220802954208800A9401C80B292
:109450002080401906220131FEF77EFE20886946F1
:10946000801D80B220800978002900D00121295474
:109470002088401C208000207CBD000010B50446E0
:10948000FFF784FF2146064800F040F8204601F02F
:1094900059F82046FFF71EFE204600F08DF810BD5B
:1094A0004825002030B5184B0D4604000FCB85B081
:1094B00003936B4607C324D0002D22D00020C04365
:1094C000A0822868A0610020A0752146684663DF5D
:1094D000002814D121786846817401210182A21CE0
:1094E00004A90120A0DF002809D12946204601F067
:1094F000CFF8002803D12946204601F067FA05B0CD
:1095000030BD0E20FBE7000060AD010000281ED03A
:1095100000291CD00A88102A14D0112A14D0502AED
:1095200015D1891D0A88038A9A4202D10B8B022B1E
:109530000ED083889A420AD18369002B07D00A8B08
:109540001A311847898801E00021C9438182704798
:10955000CA7E8B7E11021943C907C90F00D00121B1
:109560008175704707B584B000280DD0828A114BF1
:109570009A420BD0827D002A08D06A46128B142AA8
:1095800006D9072007B000BD0E20FBE70820F9E749
:109590000022009201920292039282896B461A8005
:1095A000039106A9029101219970808A6946A6DF7C
:1095B000E8E70000FFFF0000054902880868102A5C
:1095C00004D0112A01D1401E08607047401CFBE7FF
:1095D0001820002002490918202008567047000072
:1095E000C4260020F8B52348C16800293ED00E6883
:1095F00021494C680769C078E11B0D022D0AED1C5A
:10960000002814D101201D4A000450601B4A403A32
:1096100050601B49400008601A4908601A4901203F
:1096200008602F20FEF756FD12490120C870B54290
:1096300000D23546E81900020F4B000A403318608B
:109640000D4A5168001B091B0902090A0002C91CC6
:10965000000A814209D9506818602F20FEF73AFDB0
:1096600001200749400480390860F8BD00F0D8FFA8
:10967000F8BD00008020002000150140401301408B
:1096800080E200E000E100E000100140F8B506468D
:10969000108814468446801D0D46984201D90C203E
:1096A000F8BD32880720062AFAD31927FF01184B84
:1096B000BA4201D99A42F3D171880629F0D3B9424E
:1096C00001D99942ECD19A4203D0994201D08A4201
:1096D000E6D805216046295420881221401C80B21A
:1096E000208029542088401C80B220804119308875
:1096F00001F040FA2188401880B22080411970881A
:1097000001F038FA2188401820800020F8BD0000C0
:10971000FFFF000010B500221146FFF79FFA10BDB1
:10972000F8B5164800F0F4F9144D00260C3D144C21
:10973000002807D0616900291CD001206A461070FA
:10974000684616E02878002805D06169002911D004
:10975000684606700DE0687800280DD0A1680948B9
:1097600000220068FFF70EFB002803D0A169002942
:1097700000D088472E70F8BD6168F0E74C200020CB
:10978000882600205CAD010010B50E4900234A7800
:109790008C78A24212D0521CD2B24A70022A00D156
:1097A0004B704A78074B920018339A580260086948
:1097B00010180002000A0861012010BD036000209B
:1097C00010BD000080200020826883881A40036852
:1097D0009A5C0A708168491C81607047C2688388FE
:1097E0001A4003689954C168491CC160704710B59C
:1097F0000446C0B2FFF798FB204610BD70B5094C77
:109800000125E57060690A21401C6061FEF78EFC4D
:10981000002900D16570044800694003C00F00D1E1
:10982000257170BD0020002000050050FFB581B0FB
:1098300000240A9F0B9E0C9D0299019800F049F9A3
:1098400001A807C8002300F0BDF80498002804D13F
:109850003A0A0299019800F08DF8FAB2029901983B
:1098600000F088F80299019800F033F901A807C8C0
:10987000012300F0A7F86F1E0EE0012D03D9BC42B2
:1098800001DA012200E000220299019800F03CF880
:109890003070761C641CE4B2AC42EED3029901989D
:1098A00000F027F9012005B0F0BDFFB581B000241C
:1098B0000C9F0A9E0B9D0299019800F00AF901A8DD
:1098C00007C8002300F07EF80498002804D1320A6B
:1098D0000299019800F04EF8F2B20299019800F056
:1098E00049F807E02A780299019800F043F86D1CC6
:1098F000641CE4B2BC42F5D30299019800F0F9F877
:10990000012005B0F0BD0000F7B50E460024084662
:10991000FEF73AFD164F00250098FEF729FD009846
:10992000FEF72CFD3869F040C007C00F02D0600080
:10993000401C00E060006D1CEDB2C4B2082DEBD3FA
:109940000098FEF715FD3046FEF727FD0298002827
:10995000304602D0FEF70CFD01E0FEF70FFD009847
:10996000FEF70CFD0098FEF703FD2046FEBD00004B
:1099700000050050F8B514460E4607460025384647
:10998000FEF7F6FCE009C0018028304617D0FEF74C
:10999000EFFC6006040E3846FEF7F0FC6D1CEDB2DD
:1099A000082DECD33846FEF7E3FC3046FEF7E6FC24
:1099B0003846FEF7E3FC3846FEF7DAFCF8BDFEF762
:1099C000DDFCE6E7FFB55006050E81B01E460F46EA
:1099D00000240198FEF7CCFCE809384602D0FEF7D7
:1099E000CDFC01E0FEF7C4FC6806050E0198FEF709
:1099F000C5FC641CE4B2072CEBD30198FEF7B8FC5D
:109A0000002E384612D0FEF7B9FC0198FEF7B6FCDE
:109A10000198FEF7ADFC3846FEF7B0FC0198FEF762
:109A2000ADFC0198FEF7A4FC05B0F0BDFEF7A0FC6C
:109A3000EBE70000F8B51E4C2078002837D02069ED
:109A4000002807D00026E068002805D00025002E59
:109A500004D013E00126F6E70125F8E7684651DF58
:109A6000052806D0002806D000221146FFF7F6F898
:109A700004E0012602E0216900988847002D12D1F8
:109A8000608869460880A06861DF052806D0002844
:109A900006D000221146FFF7E1F804E0012502E0BC
:109AA000E168A0688847002ED8D0002DCFD0F8BD3F
:109AB000A420002070B50D460446FEF76EFC284633
:109AC000FEF76BFC2046FEF759FC2846FEF756FCD5
:109AD00070BD70B504460D460846FEF74FFC2046A3
:109AE000FEF74CFC2846FEF743FC2046FEF740FC00
:109AF00070BD70B50D460446FEF73AFC2846FEF7E9
:109B000037FC2046FEF73AFC2846FEF737FC70BDCE
:109B1000418805480288914204D34088814201D897
:109B20000120704700207047442000201048018C1D
:109B3000C9B2012917D1818C090714D1018D0906F9
:109B40000A0F03D1828D1206120F0ED0090F0129C0
:109B500003D1828D1206120F07D0032903D1808D05
:109B60000006000F01D00020704701207047000060
:109B7000C00F00F030B51588EC1C9C4201D90C20B8
:109B800030BD02244C5513881C255B1C9BB21380EE
:109B9000CD5413885B1C9BB21380012807D0022888
:109BA00007D0032807D0042807D0072030BD0020A5
:109BB00004E0012002E0CC5401E00320C8541088E6
:109BC000401C1080002030BDF8B52C49C8680A69D7
:109BD0000C780F7989688646944600913EE000999A
:109BE000E20055182A7836E0182353436968521C5E
:109BF000C918AB78D2B2934200D100220B78022B65
:109C000002D0032B27D123E04E680346014603E030
:109C1000B14204D00B46C96900291CD0F8E70029DD
:109C200019D08B4208D1C069002805D1144F0126F4
:109C3000BE600026B44601270E68C969D9610029B3
:109C400009D00B689B190B6005E00174C06900E046
:109C500000210028F9D169789142C5D12146641EBE
:109C6000E4B20029BBD1054962460A61C8600F71A0
:109C7000704501D00120F8BD0020F8BD80200020F3
:109C800000100140F8B5044631480026C168009133
:109C900007784EE02E48F90080680D1843E0002C4C
:109CA00002D02046E4691FE02878182141436A6801
:109CB000401CC0B251182870AA78904200D12E7072
:109CC0000A784868012A30D1027C002A2DD18A689E
:109CD0004260CA6882600A69C260496981611C4940
:109CE0000979002900D04660194943680A699C46F1
:109CF000991A0902174B090A994202D282688918F7
:109D000007E06146511A09028268090A8A4202D9AB
:109D1000511A016000E0066046600121866001740E
:109D2000C66100F0DBFD002CB9D128786978884243
:109D3000BAD138467F1EFFB20028ABD10448C168B3
:109D40000098814201D00120F8BD0020F8BD00003C
:109D500080200020FFFF7F008AB000256846057143
:109D60002B468D4A06212846FEF7C4FF002803D063
:109D700000221146FEF772FF884E06AB301D07C861
:109D800007C3FF21013186480290401803910591D5
:109D900004900323834A02A906A8FFF775F8002858
:109DA00003D000221146FEF759FF7D4900234822C7
:109DB0005C39082000F030FD002803D00022114655
:109DC000FEF74CFF029568460395057202A860DF16
:109DD000002803D000221146FEF740FF724800F031
:109DE00011FD002803D000221146FEF737FF112095
:109DF0006946087406226DA104A87CDF002803D000
:109E000000221146FEF72AFF0295102168460395AD
:109E100001813C214181FF2185819131C18102A8CD
:109E20007ADF002803D000221146FEF717FF6148B1
:109E3000009069466048FFF735FB002803D00022F8
:109E40001146FEF70BFFFEF7BDFE1C2102A8FEF730
:109E50009CF90520C00303900F2000040490029594
:109E6000032168460175C582057654480790544819
:109E7000089002A8FFF760FA002803D000221146DC
:109E8000FEF7ECFE0321122000F0CAFA00210620A2
:109E900000F0C6FA0021084600F0C2FA00210720AF
:109EA000FEF738FB00211120FEF734FB012201A947
:109EB000002000F09FFB434C2078002804D0684627
:109EC000017941A0FEF7E4FBFEF7FAFA474A0121C7
:109ED0003248FEF7F9FE01210022C9033068FEF77F
:109EE00051FF0320FFF738F9002803D00022114664
:109EF000FEF7B4FE48DF002803D000221146FEF72B
:109F0000ADFEE0780028F5D001211120FEF702FB1C
:109F1000A078002807D02078002802D034A0FEF7CF
:109F2000B7FB74DFA570207900280AD020780028BC
:109F300002D035A0FEF7ACFB00211120FEF7EAFAB3
:109F400025716078002825D0E0682061000C0004AD
:109F5000E060FEF76BFAE1684018E0602169884232
:109F600003D2012109044018E060FEF72BFE032014
:109F7000FFF7F2F82078002809D02AA0FEF788FB26
:109F80002078002803D030A0E168FEF781FB012093
:109F9000A0706570E570ADE7382300204CAD01007E
:109FA0003821002069AA01007D940100786F796F43
:109FB0006E670000DFA401004825002091A5010084
:109FC00015970100002000200D0A20716D613639BF
:109FD00038315F4932435F6465766963655F494440
:109FE000203D2030782558200D0A0000FD97010003
:109FF0000D0A2073645F626C655F6761705F616406
:10A00000765F73746F7000000D0A20D3D0B0B4BCBB
:10A01000FCB0B4CFC2A3AC4C4544C9C1B6AFD2BBAF
:10A02000CFC200000D0A20666C61675F33686F75F0
:10A0300072732D2D2D2D6164766572746973696E4E
:10A04000675F696E697400000D0A206E6F775F7339
:10A050007465703D2564200070B5144682880546FD
:10A060000E46921C2088911C4118994201D8FE2A64
:10A0700001D90C2070BD521C32542088FF21401C95
:10A0800080B2208031542088401C80B22080811909
:10A09000288800F06FFD2188401880B22080AA88AF
:10A0A000002A09D0A968002908D08019FEF754F8C1
:10A0B0002088A98840182080002070BD072070BD2E
:10A0C000F8B50F46017814460546012902D1687893
:10A0D000002806D02088821C9A422DD8012902D05F
:10A0E00006E00720F8BD69784118891C994223D8F9
:10A0F000181A801E86B2684606802188B81C081887
:10A1000069467DDF0028EDD12878022805D169460F
:10A110000988B14201D809210AE00821012805D1A6
:10A120006878B04202D86A46108001E0684606802E
:10A1300068460088FE2801D90C20F8BD2288401C02
:10A14000B8542088401C80B2208039542088694649
:10A15000401C20800988401820800020F8BD0000A5
:10A160008207D30EFF229A408907090E10B5994045
:10A1700000280BDA03071B0F083B9C080C4BA400BC
:10A18000E318DC6994430C43DC6107E08408094B65
:10A19000A400E418236893430B432360C106C90E4F
:10A1A00001208840044908600449086010BD00008F
:10A1B00000ED00E000E400E080E200E000E100E00B
:10A1C000F3B5284D0446A87D81B0002801D00820B1
:10A1D000FEBD002C00D1244C206800F032F920781C
:10A1E000012631468140214881600021606800F0ED
:10A1F0001FF9204F1E4BA0697862607D217D0843C6
:10A200001C494031C86218466268216800F061F953
:10A21000207D012810D10021A06800F009F9E06834
:10A2200000F00FF9207B31468140104881601048D2
:10A23000A268E16800F03FF902986860216929602E
:10A24000002806D00D4A217F0B4850600220FFF7FE
:10A2500087FF042038600020E874A874AE75687524
:10A26000FEBD00000C27002090AD0100000500504D
:10A270000020004000250040800002000023004034
:10A28000F8B5294DEA7C002A01D01120F8BDE97407
:10A29000E86000202875687D002801D100F056FA9A
:10A2A0006868224C002805D0812021498000486040
:10A2B0000020F8BDFF212531204600F0F7F80546C3
:10A2C000FF210931204600F0F1F80746FF21453112
:10A2D000204600F0EBF80646394631432943E9D0E1
:10A2E0002846304306D100F0BDF90F48C17C007DFF
:10A2F0008142DFD8FF21453100206050FF21253108
:10A3000060500949002DC87401D00320F8BD002E0B
:10A3100001D00F20F8BD497D0120002901D0206027
:10A32000C6E76060C4E700000C2700200020004062
:10A330000023004010B5044C607D002803D100F0DC
:10A3400005FA0120607510BD0C270020F8B5204CDF
:10A350000026A27C002A01D01120F8BDA174A060C3
:10A36000002020821B4DFF271D37E8510120A860E7
:10A3700000F016FB6168002911D026E0FF270137A5
:10A380002946144800F092F8002802D1208AB842E9
:10A39000F6D1208AB84203D000F002FB00E03D462F
:10A3A000A07C218A8842E9D8218AC81FF93801D1C6
:10A3B0000F2608E0074F2946384600F077F80028B6
:10A3C000F9D00120F8600020A0743046F8BD0000EC
:10A3D0000C2700200020004030B552000A439900AD
:10A3E000039C0A432102049D0A4329040A430249AB
:10A3F00080004018026030BD0007005030B55200A8
:10A400000A439900039C0A432102049D0A4329043C
:10A410000A43024980004018026030BD0007005026
:10A42000024A8900800080180160704700070050D0
:10A430001CB500220B46009211460192FFF7CCFF9B
:10A440001CBD1CB5002100910B4601220191114653
:10A45000FFF7C2FF1CBD1CB5002100910B46012275
:10A4600001911146FFF7CAFF1CBD0000820006489B
:10A470001018026803231B049A430260026809044F
:10A480000A4302607047000000070050034940186B
:10A490000068012800D000207047000000600040E4
:10A4A0000921C90141180868086070474058002810
:10A4B00000D00120704705231B02C0188160026193
:10A4C00070470322120280184068084000D0012023
:10A4D000704705231B02C018C1604261704770B508
:10A4E00016460D46002405E0285DFEF71DFD0028F8
:10A4F000FAD1641CB442F7D30A20FEF715FD0028F8
:10A50000FAD170BD10B500280DD107480078002899
:10A5100002D006A0FEF7BCF83CDF002803D00022E2
:10A520001146FEF79BFB10BD002000200D0A207392
:10A530006C6565705F6D6F64655F656E74657220D4
:10A540000D0A000010B502881049102A12D0112AF5
:10A5500012D00846C088132A12D0522A09D10023EB
:10A560001A461946A9DF002803D000221146FEF73B
:10A5700075FB10BD808801E00020C043C88010BD7D
:10A5800000231A4685217FDFEDE700000020002030
:10A5900010B50078002809D105483B21C08876DF36
:10A5A000002803D000221146FEF758FB10BD000022
:10A5B000002000200021425C002A01D001207047C9
:10A5C000491C0629F7D30020704700000749097984
:10A5D000490701D408207047002804D0044949786D
:10A5E0000160002070470E20704700005C200020B2
:10A5F00024270020FEB50D460446164602210320FE
:10A60000FFF758FA6F4670C7012312220221032078
:10A61000FFF70CF9002801D00020FEBD0120FEBD8F
:10A6200070B501240B49600408600B494010886034
:10A63000094940398860094D6C602F20FDF74AFDBB
:10A64000AC60074D00242F202C61FDF743FDEC701A
:10A6500070BD000080E100E04013014000100140A7
:10A6600080200020FF21074809310022425006487F
:10A6700081690648037DC268D154017D491C01757A
:10A680007047000000200040002500400C270020FB
:10A6900070B500240546601C90B00007000F08A9A3
:10A6A000103008940870601C0007000F10304870CC
:10A6B0008878F9263040801C88701C2101A8FDF79D
:10A6C00064FD6946087910210843694608710294BF
:10A6D00008A80494059407940690287808A988711E
:10A6E0000320694688841120009408704870887897
:10A6F000E7213040801C08400126304369468870BD
:10A7000014210AA8FDF741FD09A80A9068460B909C
:10A7100069460E8614204C8688862B4668880C3342
:10A720000AAA01A9A2DF10B070BD00001FB5012266
:10A7300069460A7008720448C16801910021C17419
:10A7400006C8684690471FBD0C270020FF22054819
:10A75000253200218150FF22093281500121016000
:10A760007047000000200040FFB50746806A81B0B6
:10A77000144600283DD0002538462030009033E0B4
:10A780000C20B96A68430E18B088801CFE2802D9D4
:10A790000C2005B0F0BD22880299401C8854208806
:10A7A0001622401C80B2208002990A542088401C46
:10A7B00080B2208002994118308800F0DBF92188AE
:10A7C000401880B22080B288002A0AD0B1680029DF
:10A7D0000FD0029BC018FDF7BFFC2088B18840183D
:10A7E00020806D1C0098EDB2007BA842C8D80020E4
:10A7F000CFE70720CDE710B508461146C046C04652
:10A8000010BD0000002803D00249C8600020704736
:10A810000E207047A420002070B5002901D08C07BD
:10A8200001D0072070BD064C0125A160628005495A
:10A83000636010DF0028F5D1257016202EDF70BD73
:10A84000A4200020F7A70100FEB51F4C00252769B2
:10A85000E06802906846FEF797FF0190FFF7B4F9B1
:10A8600006460198002822D000230098E16817E0EE
:10A870000E680A46864202D9301A086012E0801B30
:10A88000F31800261660D668D169B446002E07D0AA
:10A89000FE183602360A566066469660D561154641
:10A8A0000029E5D12846E160FFF7ECF906E02846EB
:10A8B000FFF7E8F9002801D1002E02D00298FEF738
:10A8C00091FE00202071FEBD802000200120024961
:10A8D000000508607047000000E200E010B50E4B74
:10A8E000D968002906D002680C68A24204D8A21ACE
:10A8F0000A60C161D86010BD0B4604E00B46C9690F
:10A90000121B002904D00C689442F7D3A41A0C60DF
:10A910000260C161D86110BD80200020F8B51E4DD5
:10A92000EC68002C36D01D48002740682969401A81
:10A930000602360A2068B0421AD8361AC7192246CB
:10A94000107CE469002811D0002010746B69002B82
:10A9500009D0916950699847002807D00022114614
:10A96000FEF77CF902E0516990698847002CE1D13B
:10A970006978A878814206D1401CC0B2A87002282C
:10A9800001D10020A87004490006800D18310F5035
:10A99000FFF79CFFF8BD000080200020001501405B
:10A9A000FF2107481D31002242500648028A816873
:10A9B000895C028A521C02820348C1617047000010
:10A9C000002000400C2700200025004070B58EB00C
:10A9D00005461C216846FDF7D8FB694608780C211E
:10A9E0000843694608700024019403940494059474
:10A9F0000694287808A98870022069460884601C9B
:10AA00000007000F10300794087711204877887FDF
:10AA1000F9210840801CE72108400126304369469F
:10AA20008877142109A8FDF7B0FB08A8099007A8AA
:10AA30000A9069468E851420CC85088668882B1D6F
:10AA400009AAA2DF0EB070BD1FB500216A461170C1
:10AA50001072044882680192817406C86846904763
:10AA60001FBD00000C27002070B50178002909D017
:10AA7000012901D0022904D1002240681146FEF7C5
:10AA8000EDF870BD104C0F4D60792818FEF7E2F913
:10AA90006079401CC2B2A81862712038C07F0A28B1
:10AAA00001D0142AEDD307490848FEF75BFD0828BA
:10AAB00005D0002803D000221146FEF7CFF8002071
:10AAC000607170BD24210020002000204825002056
:10AAD0007CB50178254D01290AD002292FD0002903
:10AAE0002CD129462248FEF7C5F800282ED031E0A7
:10AAF000406801781E481038FEF7D9F81C4C103C0D
:10AB0000002805D001216A4611700190684608E0CE
:10AB1000A068E168081A012805D10020694608707C
:10AB2000684669688847A068E168081AA188884271
:10AB300004D80E480121801CFFF7A2FB7CBD022136
:10AB40006A461170C068019068460CE00121074810
:10AB5000FFF7FCFB06488168C068401AEED103206D
:10AB6000694608706846696888477CBD54200020A3
:10AB7000B42600200870000A4870022070470000C8
:10AB800038B51549154A488890420FD04A78144C78
:10AB9000521CD2B24A70237B934208D3091D75DF41
:10ABA000002803D0A169002900D0884738BD0025BE
:10ABB0004D70217C002907D03B2176DF002803D08F
:10ABC000A169002900D0884761690029EED0684654
:10ABD0000570884738BD000040200020FFFF0000BE
:10ABE0008826002012494868C005C00D19D01038C9
:10ABF00040B2002807DA0207120F083A92089200C2
:10AC00005118C96904E081080A4A8900891809684D
:10AC10008007C00EC1408804000E012803D003281D
:10AC200003D00220704700207047012070470000C9
:10AC300000ED00E000E400E042788378521CD2B2DC
:10AC4000934200D100220378934201D10020704743
:10AC50000A70416840781822504308187047FFB5C1
:10AC600083B016460C9D0D9C1F4602220095019450
:10AC7000039800F00CF8002807D13B46102231461B
:10AC800000950194039800F002F807B0F0BDFFB5FD
:10AC900083B0074600200C9C8646268805463AE08D
:10ACA0007868A90042181188684681805188C1805F
:10ACB0000022694601A865DF002839D1684601787D
:10ACC0000598814226D17046002801D0002200E07C
:10ACD00002222088891842180D998A4227D8714685
:10ACE00000290AD1401C80B22080069A0499115490
:10ACF0002088401C208001208646218806980A185A
:10AD0000694601A865DF002812D1694620880978C4
:10AD1000401820806D1C3888A842C1DC704600288D
:10AD20000AD02088801B401E80B2FF2802D90C2048
:10AD300007B0F0BD069988550020F9E70179002990
:10AD400002D1007B002800D001207047BC200020E9
:10AD50001D1C080A0000000000E0D7016826002042
:10AD60009ECADC240EE5A9E093F3A3B50000406E73
:10AD7000090000000B0000000A00000008000000AD
:10AD8000000000000000000000509D0003000000D3
:10AD9000090000000B0000000A000000080000008D
:10ADA000000000000000000000509D0003000000B3
:10ADB000D0AD010000200020BC000000B0860100E2
:10ADC0008CAE0100BC200020440F0000C0860100B2
:10ADD000010001000000FFFF010002000000000070
:10ADE0000000000000000000000000000024F4004B
:10ADF0000000000000000000FFFF00000000000055
:10AE00000000000000000000000000000000000042
:10AE10000000000000000000000000000000000032
:10AE20000000000000000000000000000000000022
:10AE30000000000000000000000000000000000012
:10AE40000000000000000000000000000000000002
:10AE500000000000000000000000000000000000F2
:10AE600000000000000000000000000000000000E2
:10AE700000000000000000000000000000000000D2
:0CAE8000000000000000000000000000C6
:04000005000180C1B5
:00000001FF
